{"abi":[{"type":"constructor","inputs":[{"name":"_pvmMathEngineAddress","type":"address","internalType":"address"}],"stateMutability":"nonpayable"},{"type":"function","name":"agentInteractions","inputs":[{"name":"","type":"address","internalType":"address"},{"name":"","type":"uint256","internalType":"uint256"}],"outputs":[{"name":"interaction_type","type":"uint8","internalType":"uint8"},{"name":"timestamp","type":"uint64","internalType":"uint64"}],"stateMutability":"view"},{"type":"function","name":"getAgentReputation","inputs":[{"name":"agent","type":"address","internalType":"address"}],"outputs":[{"name":"","type":"int32","internalType":"int32"}],"stateMutability":"view"},{"type":"function","name":"micropaymentFee","inputs":[],"outputs":[{"name":"","type":"uint256","internalType":"uint256"}],"stateMutability":"view"},{"type":"function","name":"owner","inputs":[],"outputs":[{"name":"","type":"address","internalType":"address"}],"stateMutability":"view"},{"type":"function","name":"pvmMathEngineAddress","inputs":[],"outputs":[{"name":"","type":"address","internalType":"address"}],"stateMutability":"view"},{"type":"function","name":"recordInteraction","inputs":[{"name":"agent","type":"address","internalType":"address"},{"name":"interactionType","type":"uint8","internalType":"uint8"}],"outputs":[],"stateMutability":"payable"},{"type":"event","name":"InteractionRecorded","inputs":[{"name":"from","type":"address","indexed":true,"internalType":"address"},{"name":"agent","type":"address","indexed":true,"internalType":"address"},{"name":"interactionType","type":"uint8","indexed":false,"internalType":"uint8"}],"anonymous":false}],"bytecode":{"object":"0x608060405266038d7ea4c6800060025534801561001a575f5ffd5b5060405161130f38038061130f833981810160405281019061003c919061011f565b335f5f6101000a81548173ffffffffffffffffffffffffffffffffffffffff021916908373ffffffffffffffffffffffffffffffffffffffff1602179055508060015f6101000a81548173ffffffffffffffffffffffffffffffffffffffff021916908373ffffffffffffffffffffffffffffffffffffffff1602179055505061014a565b5f5ffd5b5f73ffffffffffffffffffffffffffffffffffffffff82169050919050565b5f6100ee826100c5565b9050919050565b6100fe816100e4565b8114610108575f5ffd5b50565b5f81519050610119816100f5565b92915050565b5f60208284031215610134576101336100c1565b5b5f6101418482850161010b565b91505092915050565b6111b8806101575f395ff3fe608060405260043610610054575f3560e01c806371b5eb52146100585780638da5cb5b146100825780638f4048c5146100ac578063910e5b21146100e957806396312a7514610105578063ebeae5871461012f575b5f5ffd5b348015610063575f5ffd5b5061006c61016b565b6040516100799190610a71565b60405180910390f35b34801561008d575f5ffd5b50610096610190565b6040516100a39190610a71565b60405180910390f35b3480156100b7575f5ffd5b506100d260048036038101906100cd9190610aeb565b6101b4565b6040516100e0929190610b66565b60405180910390f35b61010360048036038101906100fe9190610bb7565b610209565b005b348015610110575f5ffd5b506101196103dd565b6040516101269190610c04565b60405180910390f35b34801561013a575f5ffd5b5061015560048036038101906101509190610c1d565b6103e3565b6040516101629190610c63565b60405180910390f35b60015f9054906101000a900473ffffffffffffffffffffffffffffffffffffffff1681565b5f5f9054906101000a900473ffffffffffffffffffffffffffffffffffffffff1681565b6003602052815f5260405f2081815481106101cd575f80fd5b905f5260205f20015f9150915050805f015f9054906101000a900460ff1690805f0160019054906101000a900467ffffffffffffffff16905082565b60025434101561024e576040517f08c379a000000000000000000000000000000000000000000000000000000000815260040161024590610cd6565b60405180910390fd5b60018160ff1610158015610266575060038160ff1611155b6102a5576040517f08c379a000000000000000000000000000000000000000000000000000000000815260040161029c90610d3e565b60405180910390fd5b60035f8373ffffffffffffffffffffffffffffffffffffffff1673ffffffffffffffffffffffffffffffffffffffff1681526020019081526020015f2060405180604001604052808360ff1681526020014267ffffffffffffffff16815250908060018154018082558091505060019003905f5260205f20015f909190919091505f820151815f015f6101000a81548160ff021916908360ff1602179055506020820151815f0160016101000a81548167ffffffffffffffff021916908367ffffffffffffffff16021790555050508173ffffffffffffffffffffffffffffffffffffffff163373ffffffffffffffffffffffffffffffffffffffff167fde086966d52f571f83775fe0fd84cb5152fcad2e4dbacd4606f73c4459f56a84836040516103d19190610d5c565b60405180910390a35050565b60025481565b5f5f60035f8473ffffffffffffffffffffffffffffffffffffffff1673ffffffffffffffffffffffffffffffffffffffff1681526020019081526020015f20805480602002602001604051908101604052809291908181526020015f905b828210156104b9578382905f5260205f20016040518060400160405290815f82015f9054906101000a900460ff1660ff1660ff1681526020015f820160019054906101000a900467ffffffffffffffff1667ffffffffffffffff1667ffffffffffffffff168152505081526020019060010190610441565b5050505090505f8151036104d2576103e8915050610957565b5f63b378d1e260e01b90505f816040516020016104ef9190610dc0565b60405160208183030381529060405290506040835110610544576040517f08c379a000000000000000000000000000000000000000000000000000000000815260040161053b90610e24565b60405180910390fd5b5f60028451901b90508181604051602001610560929190610ec8565b60405160208183030381529060405291505f5f90505b84518110156105f5578285828151811061059357610592610eef565b5b60200260200101515f01516105c58784815181106105b4576105b3610eef565b5b60200260200101516020015161095c565b6040516020016105d793929190610f1c565b60405160208183030381529060405292508080600101915050610576565b50816106004261095c565b604051602001610611929190610f50565b60405160208183030381529060405291505f5f60015f9054906101000a900473ffffffffffffffffffffffffffffffffffffffff1673ffffffffffffffffffffffffffffffffffffffff168460405161066a9190610f73565b5f60405180830381855afa9150503d805f81146106a2576040519150601f19603f3d011682016040523d82523d5f602084013e6106a7565b606091505b50915091505f8151116106ef576040517f08c379a00000000000000000000000000000000000000000000000000000000081526004016106e690610ff9565b60405180910390fd5b8161072f576040517f08c379a000000000000000000000000000000000000000000000000000000000815260040161072690611061565b60405180910390fd5b6005815114801561078157505f60f81b815f8151811061075257610751610eef565b5b602001015160f81c60f81b7effffffffffffffffffffffffffffffffffffffffffffffffffffffffffffff1916145b1561084d575f60188260048151811061079d5761079c610eef565b5b602001015160f81c60f81b60f81c60ff1663ffffffff16901b6010836003815181106107cc576107cb610eef565b5b602001015160f81c60f81b60f81c60ff1663ffffffff16901b6008846002815181106107fb576107fa610eef565b5b602001015160f81c60f81b60f81c60ff1663ffffffff16901b8460018151811061082857610827610eef565b5b602001015160f81c60f81b60f81c60ff16171717905080975050505050505050610957565b600481510361091c575f60188260038151811061086d5761086c610eef565b5b602001015160f81c60f81b60f81c60ff1663ffffffff16901b60108360028151811061089c5761089b610eef565b5b602001015160f81c60f81b60f81c60ff1663ffffffff16901b6008846001815181106108cb576108ca610eef565b5b602001015160f81c60f81b60f81c60ff1663ffffffff16901b845f815181106108f7576108f6610eef565b5b602001015160f81c60f81b60f81c60ff16171717905080975050505050505050610957565b6040517f08c379a000000000000000000000000000000000000000000000000000000000815260040161094e906110c9565b60405180910390fd5b919050565b60605f600867ffffffffffffffff81111561097a576109796110e7565b5b6040519080825280601f01601f1916602001820160405280156109ac5781602001600182028036833780820191505090505b5090505f5f90505b6008811015610a28576008816109ca9190611141565b8467ffffffffffffffff16901c60f81b8282815181106109ed576109ec610eef565b5b60200101907effffffffffffffffffffffffffffffffffffffffffffffffffffffffffffff191690815f1a90535080806001019150506109b4565b5080915050919050565b5f73ffffffffffffffffffffffffffffffffffffffff82169050919050565b5f610a5b82610a32565b9050919050565b610a6b81610a51565b82525050565b5f602082019050610a845f830184610a62565b92915050565b5f5ffd5b610a9781610a51565b8114610aa1575f5ffd5b50565b5f81359050610ab281610a8e565b92915050565b5f819050919050565b610aca81610ab8565b8114610ad4575f5ffd5b50565b5f81359050610ae581610ac1565b92915050565b5f5f60408385031215610b0157610b00610a8a565b5b5f610b0e85828601610aa4565b9250506020610b1f85828601610ad7565b9150509250929050565b5f60ff82169050919050565b610b3e81610b29565b82525050565b5f67ffffffffffffffff82169050919050565b610b6081610b44565b82525050565b5f604082019050610b795f830185610b35565b610b866020830184610b57565b9392505050565b610b9681610b29565b8114610ba0575f5ffd5b50565b5f81359050610bb181610b8d565b92915050565b5f5f60408385031215610bcd57610bcc610a8a565b5b5f610bda85828601610aa4565b9250506020610beb85828601610ba3565b9150509250929050565b610bfe81610ab8565b82525050565b5f602082019050610c175f830184610bf5565b92915050565b5f60208284031215610c3257610c31610a8a565b5b5f610c3f84828501610aa4565b91505092915050565b5f8160030b9050919050565b610c5d81610c48565b82525050565b5f602082019050610c765f830184610c54565b92915050565b5f82825260208201905092915050565b7f343032205061796d656e742052657175697265640000000000000000000000005f82015250565b5f610cc0601483610c7c565b9150610ccb82610c8c565b602082019050919050565b5f6020820190508181035f830152610ced81610cb4565b9050919050565b7f496e76616c6964207479706500000000000000000000000000000000000000005f82015250565b5f610d28600c83610c7c565b9150610d3382610cf4565b602082019050919050565b5f6020820190508181035f830152610d5581610d1c565b9050919050565b5f602082019050610d6f5f830184610b35565b92915050565b5f7fffffffff0000000000000000000000000000000000000000000000000000000082169050919050565b5f819050919050565b610dba610db582610d75565b610da0565b82525050565b5f610dcb8284610da9565b60048201915081905092915050565b7f566563746f7220746f6f206c61726765000000000000000000000000000000005f82015250565b5f610e0e601083610c7c565b9150610e1982610dda565b602082019050919050565b5f6020820190508181035f830152610e3b81610e02565b9050919050565b5f81519050919050565b5f81905092915050565b8281835e5f83830152505050565b5f610e6e82610e42565b610e788185610e4c565b9350610e88818560208601610e56565b80840191505092915050565b5f8160f81b9050919050565b5f610eaa82610e94565b9050919050565b610ec2610ebd82610b29565b610ea0565b82525050565b5f610ed38285610e64565b9150610edf8284610eb1565b6001820191508190509392505050565b7f4e487b71000000000000000000000000000000000000000000000000000000005f52603260045260245ffd5b5f610f278286610e64565b9150610f338285610eb1565b600182019150610f438284610e64565b9150819050949350505050565b5f610f5b8285610e64565b9150610f678284610e64565b91508190509392505050565b5f610f7e8284610e64565b915081905092915050565b7f4164647265737320697320656d707479206f722063616c6c206661696c6564205f8201527f636f6d706c6574656c7900000000000000000000000000000000000000000000602082015250565b5f610fe3602a83610c7c565b9150610fee82610f89565b604082019050919050565b5f6020820190508181035f83015261101081610fd7565b9050919050565b7f50564d20527573742043616c6c205472617070656421000000000000000000005f82015250565b5f61104b601683610c7c565b915061105682611017565b602082019050919050565b5f6020820190508181035f8301526110788161103f565b9050919050565b7f556e7265636f676e697a6564205343414c452072657475726e20666f726d61745f82015250565b5f6110b3602083610c7c565b91506110be8261107f565b602082019050919050565b5f6020820190508181035f8301526110e0816110a7565b9050919050565b7f4e487b71000000000000000000000000000000000000000000000000000000005f52604160045260245ffd5b7f4e487b71000000000000000000000000000000000000000000000000000000005f52601160045260245ffd5b5f61114b82610ab8565b915061115683610ab8565b925082820261116481610ab8565b9150828204841483151761117b5761117a611114565b5b509291505056fea264697066735822122078895a9a31c3c8caaea83caf962603c891361643d5d422821b197de98e263a2164736f6c63430008210033","linkReferences":{}},"methodIdentifiers":{"agentInteractions(address,uint256)":"8f4048c5","getAgentReputation(address)":"ebeae587","micropaymentFee()":"96312a75","owner()":"8da5cb5b","pvmMathEngineAddress()":"71b5eb52","recordInteraction(address,uint8)":"910e5b21"},"id":0}